{
  "_format": "hh-sol-artifact-1",
  "contractName": "SimpleBatchTransfer",
  "sourceName": "contracts/SimpleBatchDeploy.sol",
  "abi": [
    {
      "inputs": [],
      "stateMutability": "nonpayable",
      "type": "constructor"
    },
    {
      "inputs": [
        {
          "internalType": "address",
          "name": "nftContract",
          "type": "address"
        },
        {
          "internalType": "address[]",
          "name": "recipients",
          "type": "address[]"
        },
        {
          "internalType": "uint256[]",
          "name": "tokenIds",
          "type": "uint256[]"
        }
      ],
      "name": "batchTransfer",
      "outputs": [],
      "stateMutability": "nonpayable",
      "type": "function"
    },
    {
      "inputs": [
        {
          "internalType": "address",
          "name": "nftContract",
          "type": "address"
        },
        {
          "internalType": "address",
          "name": "recipient",
          "type": "address"
        },
        {
          "internalType": "uint256[]",
          "name": "tokenIds",
          "type": "uint256[]"
        }
      ],
      "name": "batchTransferToSingle",
      "outputs": [],
      "stateMutability": "nonpayable",
      "type": "function"
    },
    {
      "inputs": [],
      "name": "owner",
      "outputs": [
        {
          "internalType": "address",
          "name": "",
          "type": "address"
        }
      ],
      "stateMutability": "view",
      "type": "function"
    }
  ],
  "bytecode": "0x60a060405234801561001057600080fd5b5033608052608051610b7d6100666000396000818160730152818160bc015281816101ca015281816102d80152818161041701528181610505015281816106100152818161071e015261085d0152610b7d6000f3fe608060405234801561001057600080fd5b50600436106100415760003560e01c80631239ec8c14610046578063550423041461005b5780638da5cb5b1461006e575b600080fd5b61005961005436600461097d565b6100b1565b005b610059610069366004610a00565b6104fa565b6100957f000000000000000000000000000000000000000000000000000000000000000081565b6040516001600160a01b03909116815260200160405180910390f35b336001600160a01b037f0000000000000000000000000000000000000000000000000000000000000000161461012e5760405162461bcd60e51b815260206004820181905260248201527f4f6e6c7920636f6e7472616374206f776e65722063616e20757365207468697360448201526064015b60405180910390fd5b8281146101765760405162461bcd60e51b8152602060048201526016602482015275082e4e4c2f2e640d8cadccee8d040dad2e6dac2e8c6d60531b6044820152606401610125565b826101bc5760405162461bcd60e51b8152602060048201526016602482015275139bc81d1c985b9cd9995c9cc81cdc1958da599a595960521b6044820152606401610125565b8460005b828110156104f1577f00000000000000000000000000000000000000000000000000000000000000006001600160a01b0316826001600160a01b0316636352211e86868581811061021357610213610a65565b905060200201356040518263ffffffff1660e01b815260040161023891815260200190565b602060405180830381865afa158015610255573d6000803e3d6000fd5b505050506040513d601f19601f820116820180604052508101906102799190610a7b565b6001600160a01b0316146102c15760405162461bcd60e51b815260206004820152600f60248201526e2737ba103a37b5b2b71037bbb732b960891b6044820152606401610125565b60405163e985e9c560e01b81526001600160a01b037f00000000000000000000000000000000000000000000000000000000000000008116600483015230602483015283169063e985e9c590604401602060405180830381865afa15801561032d573d6000803e3d6000fd5b505050506040513d601f19601f820116820180604052508101906103519190610a9f565b806103ea5750306001600160a01b03831663081812fc86868581811061037957610379610a65565b905060200201356040518263ffffffff1660e01b815260040161039e91815260200190565b602060405180830381865afa1580156103bb573d6000803e3d6000fd5b505050506040513d601f19601f820116820180604052508101906103df9190610a7b565b6001600160a01b0316145b6104065760405162461bcd60e51b815260040161012590610ac1565b816001600160a01b03166342842e0e7f000000000000000000000000000000000000000000000000000000000000000088888581811061044857610448610a65565b905060200201602081019061045d9190610b03565b87878681811061046f5761046f610a65565b6040516001600160e01b031960e088901b1681526001600160a01b03958616600482015294909316602485015250602090910201356044820152606401600060405180830381600087803b1580156104c657600080fd5b505af11580156104da573d6000803e3d6000fd5b5050505080806104e990610b20565b9150506101c0565b50505050505050565b336001600160a01b037f000000000000000000000000000000000000000000000000000000000000000016146105725760405162461bcd60e51b815260206004820181905260248201527f4f6e6c7920636f6e7472616374206f776e65722063616e2075736520746869736044820152606401610125565b806105b85760405162461bcd60e51b8152602060048201526016602482015275139bc81d1c985b9cd9995c9cc81cdc1958da599a595960521b6044820152606401610125565b6001600160a01b0383166106025760405162461bcd60e51b8152602060048201526011602482015270125b9d985b1a59081c9958da5c1a595b9d607a1b6044820152606401610125565b8360005b82811015610911577f00000000000000000000000000000000000000000000000000000000000000006001600160a01b0316826001600160a01b0316636352211e86868581811061065957610659610a65565b905060200201356040518263ffffffff1660e01b815260040161067e91815260200190565b602060405180830381865afa15801561069b573d6000803e3d6000fd5b505050506040513d601f19601f820116820180604052508101906106bf9190610a7b565b6001600160a01b0316146107075760405162461bcd60e51b815260206004820152600f60248201526e2737ba103a37b5b2b71037bbb732b960891b6044820152606401610125565b60405163e985e9c560e01b81526001600160a01b037f00000000000000000000000000000000000000000000000000000000000000008116600483015230602483015283169063e985e9c590604401602060405180830381865afa158015610773573d6000803e3d6000fd5b505050506040513d601f19601f820116820180604052508101906107979190610a9f565b806108305750306001600160a01b03831663081812fc8686858181106107bf576107bf610a65565b905060200201356040518263ffffffff1660e01b81526004016107e491815260200190565b602060405180830381865afa158015610801573d6000803e3d6000fd5b505050506040513d601f19601f820116820180604052508101906108259190610a7b565b6001600160a01b0316145b61084c5760405162461bcd60e51b815260040161012590610ac1565b816001600160a01b03166342842e0e7f00000000000000000000000000000000000000000000000000000000000000008787878681811061088f5761088f610a65565b6040516001600160e01b031960e088901b1681526001600160a01b03958616600482015294909316602485015250602090910201356044820152606401600060405180830381600087803b1580156108e657600080fd5b505af11580156108fa573d6000803e3d6000fd5b50505050808061090990610b20565b915050610606565b505050505050565b6001600160a01b038116811461092e57600080fd5b50565b60008083601f84011261094357600080fd5b50813567ffffffffffffffff81111561095b57600080fd5b6020830191508360208260051b850101111561097657600080fd5b9250929050565b60008060008060006060868803121561099557600080fd5b85356109a081610919565b9450602086013567ffffffffffffffff808211156109bd57600080fd5b6109c989838a01610931565b909650945060408801359150808211156109e257600080fd5b506109ef88828901610931565b969995985093965092949392505050565b60008060008060608587031215610a1657600080fd5b8435610a2181610919565b93506020850135610a3181610919565b9250604085013567ffffffffffffffff811115610a4d57600080fd5b610a5987828801610931565b95989497509550505050565b634e487b7160e01b600052603260045260246000fd5b600060208284031215610a8d57600080fd5b8151610a9881610919565b9392505050565b600060208284031215610ab157600080fd5b81518015158114610a9857600080fd5b60208082526022908201527f436f6e7472616374206e6f7420617070726f76656420666f72207472616e736660408201526132b960f11b606082015260800190565b600060208284031215610b1557600080fd5b8135610a9881610919565b600060018201610b4057634e487b7160e01b600052601160045260246000fd5b506001019056fea2646970667358221220bceeef49e2c8940d3aee944e9b0c00daff47797091ad3d0aca39c35f391aa88464736f6c63430008130033",
  "linkReferences": {},
  "deployedLinkReferences": {}
}